:100000000C945D000C9485000C9485000C94850084
:100010000C9485000C9485000C9485000C9485004C
:100020000C9485000C9485000C9485000C9485003C
:100030000C9485000C9485000C9485000C9485002C
:100040000C940D040C9485000C947D040C945704BE
:100050000C9485000C9485000C9485000C9485000C
:100060000C9485000C94850000000008000201003B
:100070000003040700000000000000000000000072
:10008000250028002B0000000000240027002A0083
:10009000040404040404040402020202020203032E
:1000A0000303030301020408102040800102040836
:1000B0001020010204081020AF0411241FBECFEF4E
:1000C000D8E0DEBFCDBF11E0A0E0B1E0EAE6FCE0A1
:1000D00002C005900D92A436B107D9F722E0A4E63C
:1000E000B1E001C01D92A432B207E1F710E0CDE506
:1000F000D0E004C02197FE010E942D06CC35D10727
:10010000C9F70E94FA040C9433060C94000090E0A6
:10011000FC01EC55FF4F249180579F4FFC018491C7
:10012000882399F090E0880F991FFC01EA57FF4F50
:10013000A591B491FC01E458FF4F859194918FB73C
:10014000F894EC91E22BEC938FBF089590E0FC01C2
:10015000E859FF4F2491FC01EC55FF4F3491FC010D
:10016000E057FF4FE491EE23C9F0222339F023300A
:1001700001F1A8F4213019F1223029F1F0E0EE0F5D
:10018000FF1FE458FF4FA591B4918FB7F894EC91FD
:10019000611126C030953E233C938FBF08952730D0
:1001A000A9F02830C9F0243049F7809180008F7D74
:1001B00003C0809180008F7780938000DFCF84B56B
:1001C0008F7784BDDBCF84B58F7DFBCF8091B0006E
:1001D0008F778093B000D2CF8091B0008F7DF9CF20
:1001E0003E2BDACF3FB7F89480916B0190916C0170
:1001F000A0916D01B0916E0126B5A89B05C02F3F5F
:1002000019F00196A11DB11D3FBFBA2FA92F982F3C
:100210008827BC01CD01620F711D811D911D42E037
:10022000660F771F881F991F4A95D1F70895AF92DF
:10023000BF92CF92DF92EF92FF920F931F93CF93D3
:10024000DF936C017B018B01040F151FEB015E0135
:10025000AE18BF08C017D10759F06991D601ED91CA
:10026000FC910190F081E02DC6010995892B79F769
:10027000C501DF91CF911F910F91FF90EF90DF901B
:10028000CF90BF90AF900895FC01538D448D252FE2
:1002900030E0842F90E0821B930B541710F0CF9620
:1002A000089501970895FC01918D828D981761F052
:1002B000A28DAE0FBF2FB11D5D968C91928D9F5F69
:1002C0009F73928F90E008958FEF9FEF0895FC0148
:1002D000918D828D981731F0828DE80FF11D858DFB
:1002E00090E008958FEF9FEF0895FC01918D228D8E
:1002F000892F90E0805C9F4F821B91098F73992713
:1003000008958FE691E00E94750121E0892B09F4A0
:1003100020E0822F089580E090E0892B29F00E9450
:10032000810181110C9400000895FC01A48DA80F97
:10033000B92FB11DA35ABF4F2C91848D90E0019627
:100340008F739927848FA689B7892C93A089B18947
:100350008C91837080648C93938D848D981306C0E8
:100360000288F389E02D80818F7D80830895EF924C
:10037000FF920F931F93CF93DF93EC0181E0888F5F
:100380009B8D8C8D98131AC0E889F989808185FF2F
:1003900015C09FB7F894EE89FF896083E889F989D1
:1003A00080818370806480839FBF81E090E0DF91D3
:1003B000CF911F910F91FF90EF900895F62E0B8D26
:1003C00010E00F5F1F4F0F731127E02E8C8D8E11E1
:1003D0000CC00FB607FCFACFE889F989808185FF48
:1003E000F5CFCE010E949501F1CFEB8DEC0FFD2FE3
:1003F000F11DE35AFF4FF0829FB7F8940B8FEA8903
:10040000FB8980818062CFCFCF93DF93EC01888D11
:100410008823B9F0AA89BB89E889F9898C9185FD7F
:1004200003C0808186FD0DC00FB607FCF7CF8C910D
:1004300085FFF2CF808185FFEDCFCE010E9495012F
:10044000E9CFDF91CF910895089590E080E008957D
:10045000CF93DF93EC0160E08E810E94A60061E003
:100460008E810E94A60060E08E810E94A6008BE82B
:1004700091E00197F1F7DF91CF910895CF92DF924C
:10048000EF92FF920F931F93CF93DF936C017C0148
:1004900087E0E80EF11CD0E0C0E0062F10E0B801C4
:1004A0000C2E02C0759567950A94E2F76170F7010A
:1004B00081917F010E94A6002196C430D10579F771
:1004C000C601DF91CF911F910F91FF90EF90DF90C8
:1004D000CF900C942802CF92DF92EF92FF920F936D
:1004E0001F93CF93DF93EC01F62E642F8C810E9433
:1004F000A6008D818F3F19F060E00E94A6000F2DAD
:1005000010E08F8584FF25C06E0187E0C80ED11CE6
:10051000F12CE12CB8010E2C02C0759567950A9458
:10052000E2F76170F60181916F010E94A600FFEF72
:10053000EF1AFF0A88E0E816F10461F7CE01DF91B7
:10054000CF911F910F91FF90EF90DF90CF900C947F
:100550002802B80184E0759567958A95E1F7CE0188
:100560000E943E026F2DCE01DF91CF911F910F911E
:10057000FF90EF90DF90CF900C943E0240E0682F08
:100580008CE092E00C946B02CF93DF93613029F002
:1005900090911B02986090931B0260931F0210922F
:1005A000200290E49093210280932202805C809349
:1005B0002302809110020E948700809111028F3FD8
:1005C00011F00E948700809112020E948700CCE007
:1005D000D2E09E012C50324080911B0284FD0AC063
:1005E00084E090E02196281739073CF48E810E9420
:1005F0008700EFCF88E090E0F5CF8BE39DE0019797
:10060000F1F760E0809110020E94A60060E0809106
:1006100012020E94A600809111028F3F19F060E043
:100620000E94A60080911B0284FD39C063E08CE02B
:1006300092E00E943E02CBE4D6E4CE010197F1F7AE
:1006400063E08CE092E00E943E022197F1F763E0C4
:100650008CE092E00E943E0283E592E00197F1F780
:1006600062E08CE092E00E943E0280911B02806278
:100670000E94BE0284E080931C028CE00E94BE02B5
:1006800081E00E94BE028BE39FE10197F1F782E0D7
:1006900080931D0286E0DF91CF910C94BE028062B0
:1006A0000E94BE028BE496E40197F1F780911B0251
:1006B00080620E94BE0283E592E00197F1F780918B
:1006C0001B0280620E94BE02D0CF41E00E946B02FA
:1006D00081E090E00895FB0101900020E9F7319757
:1006E000AF01461B570BDC01ED91FC910280F381B9
:1006F000E02D09944F925F926F927F928F929F921A
:10070000AF92BF92CF92DF92EF92FF920F931F931F
:10071000CF93DF93CDB7DEB7A1970FB6F894DEBFC6
:100720000FBECDBF8C016B01770FEE08FF08F7FEFF
:1007300050C0DC01ED91FC910190F081E02D6DE263
:1007400009955C0122273327A9012C193D094E097F
:100750005F0919A2FE01B1967F019AE0492E512C42
:10076000612C712CCA01B901A30192010E940B06F0
:10077000605DD7016E937D0121153105410551055D
:1007800089F790E080E0109721F0BD01C8010E9438
:100790006B03A80EB91E6EE171E0C8010E946B03E5
:1007A0008A0D9B1DA1960FB6F894DEBF0FBECDBF7C
:1007B000DF91CF911F910F91FF90EF90DF90CF903D
:1007C000BF90AF909F908F907F906F905F904F9071
:1007D0000895A701960119A2FE01B1967F018AE052
:1007E000882E912CA12CB12CCA01B901A50194012C
:1007F0000E940B06605DD7016E937D0121153105C6
:100800004105510589F7B12CA12C109721F2BD01AA
:10081000C8010E946B035C01BECF1F920F920FB6FE
:100820000F9211242F933F938F939F93AF93BF9376
:100830008091670190916801A0916901B0916A016E
:100840003091660123E0230F2D3758F50196A11D45
:10085000B11D209366018093670190936801A09376
:100860006901B0936A0180916B0190916C01A09134
:100870006D01B0916E010196A11DB11D80936B01B8
:1008800090936C01A0936D01B0936E01BF91AF91F5
:100890009F918F913F912F910F900FBE0F901F90BE
:1008A000189526E8230F0296A11DB11DD2CF1F92E5
:1008B0000F920FB60F9211242F933F934F935F9394
:1008C0006F937F938F939F93AF93BF93EF93FF9318
:1008D0008FE691E00E949501FF91EF91BF91AF915A
:1008E0009F918F917F916F915F914F913F912F9148
:1008F0000F900FBE0F901F9018951F920F920FB67A
:100900000F9211242F938F939F93EF93FF93E09176
:100910007F01F09180018081E0918501F091860155
:1009200082FD1BC09081809188018F5F8F73209121
:100930008901821741F0E0918801F0E0E159FE4F12
:10094000958F80938801FF91EF919F918F912F91C7
:100950000F900FBE0F901F9018958081F4CFEFE697
:10096000F1E01382128288EE93E0A0E0B0E084838D
:100970009583A683B78384E091E09183808385EC9F
:1009800090E09587848784EC90E09787868780EC59
:1009900090E0918B808B81EC90E0938B828B82EC4A
:1009A00090E0958B848B86EC90E0978B868B118EF4
:1009B000128E138E148EECE0F2E01382128286E126
:1009C00091E0918380838DE084838FEF85838CE039
:1009D000868385E0878384E0808783E0818782E067
:1009E00082871386148615861686178661E080E155
:1009F0000C94C402789484B5826084BD84B581600F
:100A000084BD85B5826085BD85B5816085BD8091D9
:100A10006E00816080936E00109281008091810051
:100A20008260809381008091810081608093810049
:100A3000809180008160809380008091B10084600B
:100A40008093B1008091B00081608093B00080916C
:100A50007A00846080937A0080917A00826080932B
:100A60007A0080917A00816080937A0080917A0088
:100A7000806880937A001092C100E0917F01F0912C
:100A8000800182E08083E0917B01F0917C01108203
:100A9000E0917D01F0917E018FEC808310928701BF
:100AA000E0918301F091840186E08083E0918101EF
:100AB000F0918201808180618083E0918101F091D9
:100AC0008201808188608083E0918101F0918201C0
:100AD000808180688083E0918101F0918201808132
:100AE0008F7D808364E084E10E94C40281E00E94E3
:100AF000BE028BE39FE10197F1F761E271E08CE0C8
:100B000092E00E946B0310E4C0E0D0E010937C0000
:100B100080917A00806480937A0080917A0086FDCB
:100B2000FCCFE0907800F0907900F0926501E092BF
:100B30006401E0911F02E23008F05AC0E150F0E099
:100B4000E45FFD4F84898F5F80680E94BE0221E9C7
:100B5000E21621E0F2060CF04DC066E371E08FE68C
:100B600091E00E946B0360916401709165018FE6D2
:100B700091E00E947A0366E371E08CE092E00E94CB
:100B80006B0360916401709165018CE092E00E94BA
:100B90007A030E94F2004B015C0188ECC82ED12C34
:100BA000E12CF12C0E94F200681979098A099B094D
:100BB000683E734081059105A8F381E0C81AD10809
:100BC000E108F10828EE820E23E0921EA11CB11C60
:100BD000C114D104E104F10429F7209709F496CF58
:100BE0000E948101882309F491CF0E9400008ECFDA
:100BF000E1E0A5CF6CE471E08FE691E00E946B0329
:100C000060916401709165018FE691E00E947A0322
:100C10006CE471E0B2CFA1E21A2EAA1BBB1BFD014E
:100C20000DC0AA1FBB1FEE1FFF1FA217B307E407CB
:100C3000F50720F0A21BB30BE40BF50B661F771F23
:100C4000881F991F1A9469F7609570958095909503
:100C50009B01AC01BD01CF010895EE0FFF1F059070
:0A0C6000F491E02D0994F894FFCF01
:100C6A0000000000B7011701440104027501530195
:100C7A0067010000000065031701250224020D0A1E
:100C8A0000436865636B20746865206272696768EF
:100C9A00746E6573730049742773206461726B2ED6
:100CAA0056616C7565206973203D2000546F6F2072
:100CBA004272696768742E56616C75652069732083
:040CCA003D200000C9
:00000001FF
